:100000000C94EF040C9433050C9433050C943305D5
:100010000C9433050C9433050C9433050C94330580
:100020000C9433050C9433050C94CB0F0C949D1059
:100030000C94FF1D0C9433050C9433050C9433057C
:100040000C9433050C9494050C9433050C943305EF
:100050000C9433050C94671E0C9433050C943305F3
:100060000C9433050C9433050C9433050C94330530
:100070000C9433050C9433050C9433050C94330520
:100080000C9433050C9433050C9433050C94330510
:100090000C9433050C9433050C9433050C94330500
:1000A0000C9433050C9433050C943305FA050406BF
:1000B0000C0656061D0656065606560656065606E3
:1000C00056062B063E0648064F060A112C111A1238
:1000D0002C111A12711194111A12E911FC11E61463
:1000E000E6141515151554157415CA16CA167F157C
:1000F000CA162F162F1696169F16CA16C4163C1629
:100100003C163C163C163C163C163C163C163C165F
:100110003C163C163C163C163C163C163C164C163F
:100120005A166116681672160000000000000000E2
:10013000000000010204060A0F17202C3A4A5D71E4
:10014000879DB3C7DAE9F5FCFFFCF5E9DAC7B39D93
:1001500087715D4A3A2C20170F0A0604020100003D
:10016000000000000000000001E101E001660266FD
:1001700002E002E100010801150109011901120163
:100180000F02080215020902190212020F000108EB
:100190000115010901190112010F020802150209D6
:1001A00002190212020F002B0014001A0008001599
:1001B0000017001C0018000C00120013002A002970
:1001C0007104001600070009000A000B000D000E64
:1001D000000F0033003400E1001D001B0006001971
:1001E00000050011001000360037003800287203A7
:1001F00052E000E200E30001302C002C00023050FD
:1002000078510052004F0035021E021F02200221C9
:1002100002220223022402250226022702010001F3
:10022000003A003B003C003D003E003F002D022E06
:10023000002F023002310001004000410042004323
:1002400000440045000100010001000100010049D7
:10025000050100010001000100010001000100ABE7
:1002600000AA00A900AE0035001E001F00200021DA
:1002700000220023002400250026002700010001A1
:10028000003A003B003C003D003E003F002D002EA8
:10029000022F0030003102010040004100420043C3
:1002A00000440045000100010001000100010001BF
:1002B0000001000100010001000100010001002215
:1002C0000AAA00A900A80001000100010001001510
:1002D0000F0100010001000100010001004C0001BC
:1002E000000100160F0100010001000100010001E2
:1002F00000010001000100010004300100010019AB
:100300000F010001000100010001000100010001D6
:100310000001000100010001000100010001004A8C
:10032000004E004B004D002B0001000100010001B8
:100330000001000100240025002600380001000112
:100340000001000100010001000100010021002264
:10035000002300250201000100010001000100014D
:1003600000010001001E001F0020002E02010001FC
:10037000000100010001000E300100010027000112
:100380000037002D00010000000000000000000008
:10039000000000000000000000000000000000005D
:1003A000000000000000000000000000000000004D
:1003B000000000000000000000000000000000003D
:1003C000000000000000000000000000000000002D
:1003D000000000000000000000000000000000001D
:1003E000000000000000001E001E001E001E001E77
:1003F000001E001E001E001E001E001E001E00002B
:100400000014001A000800150017001C0018000C4A
:1004100000120013002F000000040016000700095E
:10042000000A000B000D000E000F00330034000C1A
:10043000300000000006001900000000001100104C
:1004400000000000000000000000000000000000AC
:10045000000000000000000000000000000000009C
:10046000000000000000000000000000000000008C
:10047000000000000000000000000000000000007C
:1007A00000000000000000010000500100010001F5
:1007B000000100010001000100010001000D3001F5
:1007C00000010001000100010001000100003001F2
:1007D0000001000B300100010001000100010001D7
:1007E0000001000100010001000100010001000101
:1007F00000010001000100010001000100010001F1
:100800000001000100010028035400680065002079
:100810000050006C0061006E0063006B0020004B14
:10082000006500790062006F0061007200640000E2
:10083000002C034F007200740068006F006C0069A8
:10084000006E0065006100720020004B00650079B9
:100850000062006F00610072006400730000000419
:1008600003090409026D00040100A0FA0904000054
:1008700001030101000921110100012240000705C7
:10088000810308000A090401000103010200092193
:1008900011010001224D000705820308000A090426
:1008A00002000103000000092111010001223600AD
:1008B0000705830308000A09040300010300000080
:1008C00009211101000122390007058403100001EC
:1008D0001201100100000008EDFE6060010001023D
:1008E000000105010906A101050719E029E7150026
:1008F000250195087501810205081901290595054D
:100900007501910295017503910105071900297779
:1009100015002501957875018102C005010980A1A6
:1009200001850216010026B7001A01002AB70075DA
:100930001095018100C0050C0901A1018503160174
:1009400000269C021A01002A9C0275109501810064
:10095000C005010902A1010901A100050919012928
:100960000515002501950575018102950175038125
:10097000010501093009311581257F95027508812E
:100980000609381581257F950175088106050C0A31
:1009900038021581257F950175088106C0C00501C3
:1009A0000906A101050719E029E7150025019508A9
:1009B0007501810295017508810105081901290554
:1009C00095057501910295017503910105071900BF
:1009D00029FF150026FF00950675088100C0112427
:1009E0001FBECFEFDAE0DEBFCDBF04B603FE24C0EA
:1009F0008091FB019091FC01A091FD01B091FE015D
:100A00008730904BA740B04BB9F41092FB01109285
:100A1000FC011092FD011092FE0114BE84B7877F85
:100A200084BF88E10FB6F894809360001092600054
:100A30000FBEE0E0F8E3099511E0A0E0B1E0E8EFD7
:100A4000FAE402C005900D92A434B107D9F711E081
:100A5000A4E4B1E001C01D92AB3FB107E1F70E94F1
:100A6000150D0C947A250C940000089581E00895EA
:100A700008950C9435050C9436050C9438050E94A5
:100A8000F02323E030E0281B3109220F2093480196
:100A90000895282F2F9880918000211108C0877F0A
:100AA0008093800010928D0010928C001BC0886093
:100AB00080938000233019F48FEF9FEF0FC083E005
:100AC00090E0821B9109880F991F2FEF3FEFA9013A
:100AD00002C0569547958A95E2F7CA0190938D001A
:100AE00080938C000C943F050E943F0584E0809326
:100AF0004701109244010895279A2F988FEF9FEF96
:100B000090938700809386008AE08093800089E13B
:100B1000809381000E9459230C9474050E947C05E7
:100B20006E9A769A0C9459061F920F920FB60F92F6
:100B300011242F933F938F939F93EF93FF93E09113
:100B40004501F0914601CF010196909346018093B3
:100B500045010090470102C0F695E7950A94E2F737
:100B6000EF7380914401823019F4E03251F404C0F3
:100B7000813039F4EF3329F480916F008D7F8093B9
:100B80006F00F0E0E85DFE4FE49121E031E0E29F8C
:100B9000C001E39F900D11240090480102C096957A
:100BA00087950A94E2F790938D0080938C00FF91D3
:100BB000EF919F918F913F912F910F900FBE0F90CA
:100BC0001F901895CF93DF93EC010E94FB1EBE018E
:100BD00080E090E0DF91CF910C94F51A462F50E021
:100BE0004F30510508F062C0DC01FA01EA5AFF4FAC
:100BF0000C942A2512968C91882309F457C081E021
:100C000090E00E94E20552C012968C91882311F068
:100C100081E007C081E009C012968C91882321F001
:100C200082E00E94721B03C082E00E94931B40E19D
:100C300062E081E00E94250A39C012968C918823D7
:100C400031F085EE0E948A130E94B0232FC085EEFA
:100C50000E9452142BC012968C91882339F182E0A5
:100C60000E94931B81E00E94931B80E10E94931BD2
:100C700086E00E94721B8EE891E0089512968C9196
:100C80008823A1F086E00E94931B85E791E00895F8
:100C900012968C91882351F088E691E0089512967F
:100CA0008C91882319F084E00E94931B80E090E0EF
:100CB0000895089581E008950C945A0608950F93BD
:100CC0001F93CF93DF938C01FC01C081D181CE01B2
:100CD0000E942E1CBE010E940C07EC01B8010E946C
:100CE0005C06882309F48DC0F8018281882309F409
:100CF0004AC08091540181111FC0C431F0E5DF0763
:100D000009F051C00E945E0681E0809354010E9468
:100D1000311E909353018093520110924B01109217
:100D20004D0110924C0110924F0110924E01109201
:100D300051011092500165C0809152019091530170
:100D40000E943D1E883C910570F480914B01E82F74
:100D5000F0E0EE0FFF1FE45BFE4FD183C0838F5F97
:100D600080934B014EC0C43880E5D80721F0C538C8
:100D7000D04501F13AC0F8018281882341F01092F8
:100D8000490182E01EC0C438E0E5DE0759F58091D4
:100D90004901811106C086E20E948A1386E20E9400
:100DA000521482E01CC0C438F0E5DF0741F3C538B7
:100DB000D045D9F4F8018281882331F010924A019C
:100DC00080E20E94A1141DC080914A01811106C0D9
:100DD00087E20E948A1387E20E94521480E20E94F6
:100DE000A8140FC0C538D04529F381E0809349018C
:100DF00080934A01C801DF91CF911F910F910C940C
:100E00003B0580E0DF91CF911F910F9108950C94E5
:100E10008E050C94390508959CE0799FF00111240A
:100E200090E3899FE00DF11D1124E60FF11DEE0FF7
:100E3000FF1FE955FE4F859194910895880F991FE2
:100E4000FC01E95DFF4F859194910895880F991FEA
:100E5000FC01E955FE4F8591949108950F931F93DE
:100E6000CF93DF93EC0181159143A0F5C11580E389
:100E7000D80708F0D7C0C83ED105D8F4C03ED10588
:100E800008F003C2C83AD10578F4C53AD10508F094
:100E90006AC0C130D10509F463C008F4F3C1C4309D
:100EA000D10508F0F2C1EEC1CB3BD10508F466C014
:100EB000E9C1C11590E2D90708F0AFC0C11521E022
:100EC000D20708F0E2C1C03FD10508F4DBC18E01B2
:100ED00010651BC2C03880E5D80700F5C03790E523
:100EE000D90708F0A3C0C11520E5D20709F4ACC0AA
:100EF00050F4CE01905480319F4008F0C3C1DF70A0
:100F00008E01106A02C2C13080E5D80709F4AAC078
:100F1000C43190E5D90708F4ABC0B4C1C33820E5AB
:100F2000D20709F48EC050F4C13890E5D90709F40E
:100F300082C008F083C000E011EDE7C1C03181E557
:100F4000D80708F49FC1C11597E5D90708F432C145
:100F5000CE0190578115904108F094C1DF708FC188
:100F600001E010E0D2C1C53AD10509F490C1C63AFA
:100F7000D10509F08FC102E810E4C7C1C83AD10514
:100F800009F48BC1C93AD10509F48AC1CA3AD1051D
:100F900009F489C1CB3AD10509F488C1CC3AD1050D
:100FA00009F487C1CD3AD10509F486C1C03BD1050A
:100FB00009F485C1CE3AD10509F484C1CF3AD105EF
:100FC00009F483C1C13BD10509F482C1C23BD105FB
:100FD00009F481C1C33BD10509F480C1C43BD105EB
:100FE00009F47FC1C53BD10509F47EC1C63BD105DB
:100FF00009F47DC1C73BD10509F47CC1C83BD105CB
:1010000009F47BC1C93BD10509F47AC1CA3BD105BA
:1010100009F479C100E014E478C1CE019F700E9408
:10102000260774C1DD278E01106C6FC1CF70DD27DC
:101030008E01146D6AC100E010ED67C100E012ED91
:1010400064C100E013ED61C10E9435178FEF94E396
:101050002CE0815090402040E1F700C000000E9449
:101060008C1E53C18091DB0181608093DB014DC1F7
:101070000E94E81E811102C00E94C91E0E94001F2A
:1010800090E09093FA018093F901C23080E5D8078F
:1010900021F48091F901816086C0C43090E5D907C0
:1010A00021F48091F90182607EC0C63020E5D2072C
:1010B00021F48091F901846076C0C83080E5D807BA
:1010C00019F48091F90127C0CA3090E5D90721F4BD
:1010D0008091F901806167C0CC3020E5D20721F40E
:1010E0008091F90180625FC0CE3080E5D80721F49D
:1010F0008091F901806457C0C03190E5D90721F48F
:101100008091F90180684FC0C23120E5D20729F4EF
:101110008091F9018460886046C0C33080E5D807BB
:1011200021F48091F9018E7F3EC0C53090E5D9074A
:1011300021F48091F9018D7F36C0C73020E5D207B8
:1011400021F48091F9018B7F2EC0C93080E5D8074A
:1011500019F48091F90126C0CB3090E5D90721F42C
:101160008091F9018F7E1FC0CD3020E5D20721F498
:101170008091F9018F7D17C0CF3080E5D80721F429
:101180008091F9018F7B0FC0C13190E5D90721F41F
:101190008091F9018F7707C0C331D04531F4809138
:1011A000F9018B7F877F8093F9018091F9010E947B
:1011B000041FABC08D2F99278F709927813091051F
:1011C000D9F49E012370332702C0880F991F2A95F6
:1011D000E2F79C688E0144E0000F111F4A95E1F789
:1011E00000271370802B912B53E0CC0FDD1F5A95F5
:1011F000E1F7C076DD272FC08230910531F4DC2F76
:10120000CC278E01016F106A80C08330910569F48C
:10121000CE018370992701E010E002C0000F111F7A
:101220008A95E2F7C8019C680FC084309105B9F433
:10123000CE018370992701E010E002C0000F111F5A
:101240008A95E2F7C8019A6823E0CC0FDD1F2A9542
:10125000E1F7C07ED7708C010C2B1D2B56C085305A
:10126000910531F4DC2FCC278E01046F106A4DC03C
:10127000069709F04AC0CF71DD27DC2FCC278E01FD
:10128000106243C000E010E040C08E013EC001E8A3
:1012900010E43BC003E810E438C002EE14E435C0AB
:1012A00009EE14E432C00AEE14E42FC005EB14E496
:1012B0002CC006EB14E429C007EB14E426C00CECA8
:1012C00014E423C00DEC14E420C003E815E41DC0B1
:1012D0000AE815E41AC002E915E417C004E915E4A8
:1012E00014C001E216E411C003E216E40EC004E2E9
:1012F00016E40BC005E216E408C006E216E405C0D9
:1013000007E216E402C00AE216E4C801DF91CF91B9
:101310001F910F9108959CE0799FF001112490E3B3
:10132000899FE00DF11D1124E60FF11DEE0FFF1F47
:10133000E955FE4F85919491803E9105E0F4803C03
:10134000910558F58133910509F46FC048F489324D
:10135000910509F463C08A32910509F46DC072C029
:1013600089339105E9F082389105D1F085339105F3
:1013700009F44DC067C0833E910581F138F4803E89
:101380009105B9F0823E9105D9F05CC0863E910589
:1013900061F1873E9105A1F155C00E941E07089595
:1013A0002091F90120FD02C021FF4CC080EE90E0A9
:1013B00049C08091F90180FFF9CF89E390E042C0F4
:1013C0008091F90182FF0EC08091F90184FF03C072
:1013D00080E090E037C083EE90E034C08091F90166
:1013E00082FFF2CF82EE90E02DC08091F90183FF61
:1013F0000BC08091F90184FDEBCF87EE90E022C015
:101400008091F90183FFF5CF86EE90E01BC08091BB
:10141000F90185FF07C089E290E014C08091F901CD
:1014200085FFF9CF85E390E00DC08091F90186FF3B
:1014300007C08AE290E006C08091F90186FFF9CFEB
:1014400081E390E00E942E070895CF92DF92EF9201
:10145000FF920F931F9301E010E020E030E068015D
:10146000790104C0CC0CDD1CEE1CFF1C8A95D2F760
:1014700004C0000F111F221F331F6A95D2F70C29D9
:101480001D292E293F29C090BE01D090BF01E090B8
:10149000C001F090C101C022D122E222F322842FA8
:1014A000C016D106E206F30641F41F910F91FF909A
:1014B000EF90DF90CF900C94721B1F910F91FF90D3
:1014C000EF90DF90CF900C94931B0C943D05E82F88
:1014D000F0E0EF5DFE4F8081E82FEF70F0E0829545
:1014E0008F7021E030E0A90102C0440F551F8A959A
:1014F000E2F740A308950F931F93CF93DF9385B72F
:10150000806885BF85B7806885BFC3E0D0E001E013
:1015100010E0FE01EF5DFE4F8081E82FEF70F0E0FC
:1015200021A182958F70A80102C0440F551F8A9592
:10153000E2F7CA01822B81A38C2F0E94670A2197B0
:1015400040F78BE090E061E070E0FC01EB5EFE4F65
:101550002081E22FEF70F0E042A122952F70DB0195
:1015600002C0AA0FBB1F2A95E2F79D01242B22A3DC
:10157000019758F7DF91CF911F910F910C940707B6
:10158000EF92FF920F931F93CF93DF930DE511E03E
:10159000C3E0EE24E394F12CD5E08C2F0E94670A7F
:1015A0008BE090E040E050E0FC01EB5EFE4F60819C
:1015B000E62FEF70F0E020A130E062956F7002C07E
:1015C000359527956A95E2F720FD09C09701082E09
:1015D00002C0220F331F0A94E2F7422B532B0197CC
:1015E00018F7F801929182918F018417950721F0E5
:1015F00051834083D09300018C2F0E94670AC15011
:1016000060F68091000187FD2CC08150809300011D
:101610008F3F39F08FE99FE00197F1F700C000009C
:1016200020C080915B0190915C0190936401809354
:1016300063018091590190915A01909362018093C6
:1016400061018091570190915801909360018093BE
:101650005F01809155019091560190935E018093B6
:101660005D010E94090781E0DF91CF911F910F91E9
:10167000FF90EF900895E82FF0E0EE0FFF1FE35A80
:10168000FE4F80819181089508950F931F93CF930A
:1016900005E611E0C0E0F801929182918F010E946D
:1016A000A91DC80FF1E00D351F07A9F78C2FCF91A9
:1016B0001F910F910895809175010895CF93DF9345
:1016C00000D01F92CDB7DEB79C018091F00184302D
:1016D00019F593E099833B832A839093E9008FEF78
:1016E0009091E800815095FD06C095ED9A95F1F72F
:1016F00000008111F5CF8091E80085FF0DC040E02A
:1017000050E063E070E0CE0101960E94BB0D809135
:10171000E8008E778093E8000F900F900F90DF9194
:10172000CF910895CF93DF9300D01F92CDB7DEB74E
:101730002091F001243021F522E029839B838A83C4
:1017400083E08093E9008FEF9091E800815095FD50
:1017500006C095ED9A95F1F700008111F5CF8091C3
:10176000E80085FF0DC040E050E063E070E0CE018E
:1017700001960E94BB0D8091E8008E778093E8006F
:101780000F900F900F90DF91CF9108952091F0016D
:101790002430F1F422E02093E9002FEF3091E800AB
:1017A000215035FD06C035ED3A95F1F700002111C5
:1017B000F5CF2091E80025FF0BC040E050E065E048
:1017C00070E00E94BB0D8091E8008E778093E80066
:1017D0000895CF93DF93EC019091F001943009F0DC
:1017E00046C080910B018823D9F080910C01882399
:1017F000B9F09093E9008FEF9091E800815095FD4A
:1018000006C095E19A95F1F700008111F5CF80911E
:10181000E80085FF2CC040E050E060E170E017C0B8
:1018200081E08093E9008FEF9091E800815095FD71
:1018300006C095ED9A95F1F700008111F5CF8091E2
:10184000E80085FF14C040E050E068E070E0CE01A1
:101850000E94BB0D8091E8008E778093E80080E1C4
:10186000FE01A5E6B1E001900D928A95E1F7DF91C6
:10187000CF9108958091EF01811109C00E94500F0E
:101880000E94AD0F8091E20084608093E200089591
:101890001092EF010895089508950C94F41D42E00C
:1018A00061EC81E00E94CA0E42E061EC82E00E949D
:1018B000CA0E42E061EC83E00E94CA0E42E161EC94
:1018C00084E00C94CA0E8091F201833009F455C073
:1018D00030F4813071F0823009F48EC008958A307E
:1018E00009F47AC08B3009F460C0893009F09CC0DB
:1018F00020C08091F101813A09F096C08091E80002
:10190000877F8093E8008091F5019091F601892B03
:1019100021F460E185E691E003C060E080E090E0C2
:1019200070E00E94060E8091E8008B778093E800BB
:1019300008958091F101813209F076C08091F5011E
:101940009091F601009719F0039709F06DC080910E
:10195000E800877F8093E8008091E80082FD05C061
:101960008091F0018111F8CF5FC08091F1008093E8
:1019700075018091E8008B7753C08091F101813A25
:1019800009F052C08091F5019091F601892B09F080
:101990004BC08091E800877F8093E8008091E80049
:1019A00080FFFCCF80910B0136C08091F101813224
:1019B000D9F58091F5019091F601892BA9F58091D7
:1019C000E800877F8093E8000E94FF0E8091F3017A
:1019D00080930B010C9435178091F101813221F530
:1019E0008091E800877F8093E8000E94FF0E80913D
:1019F000F4018093760108958091F101813AA1F478
:101A00008091E800877F8093E8008091E80080FF64
:101A1000FCCF809176018093F1008091E8008E7771
:101A20008093E8000C94FF0E089584B7877F84BFED
:101A300088E10FB6F89480936000109260000FBEAA
:101A400080E880936100109261000E94A2120E94BF
:101A5000500F0E94AD0F8091E20084608093E200FD
:101A600078940E9433120E94A41281E091E00E94B7
:101A70004E128091F001853069F40E94B51D80916D
:101A8000EE018823B1F30E94E31D882391F30E94A5
:101A9000A50DEFCF0E94AC12ECCF292F33272330B6
:101AA0003105C9F064F42130310581F0223031056F
:101AB00009F043C08DE690E023E638E042C02132D1
:101AC0003105F1F02232310541F137C082E190E079
:101AD00020ED38E036C099278130910541F0823001
:101AE000910541F0892B49F5EFE5F8E005C0E1E308
:101AF000F8E002C0E7E0F8E0849190E09F0121C0A7
:101B00006430D8F4E62FF0E0EE0FFF1FEF5CFE4FDD
:101B10002081318189E090E014C0643070F470E07D
:101B2000FB01EE0FFF1FE75DFE4F20813181FB01BE
:101B3000EB5DFE4F808190E004C080E090E020E00B
:101B400030E0FA0131832083089580E189BD82E18C
:101B500089BD09B400FEFDCF8091D8008F7D8093B0
:101B6000D8008091E00082608093E0008091E000E6
:101B700081FDFCCF0895CF92DF92EF92FF920F93F9
:101B80001F93CF93DF93EC018B016A010E941E0F1C
:101B9000811133C0C114D10439F0F60180819181E3
:101BA000081B190BC80FD91FE12CF12C01151105C9
:101BB00019F18091E80085FD16C08091E8008E77CC
:101BC0008093E800C114D10449F0F601808191812D
:101BD000E80EF91EF182E08285E00FC00E941E0F20
:101BE000882321F30AC089918093F10001501109E3
:101BF000FFEFEF1AFF0ADACF80E0DF91CF911F915C
:101C00000F91FF90EF90DF90CF9008952091F70112
:101C10003091F8012617370748F06115710539F43E
:101C20002091E8002E772093E80001C0B90140E040
:101C300061157105A9F12091F001222309F443C037
:101C4000253009F442C02091E80023FD40C02091D6
:101C5000E80022FD32C02091E80020FFE9CF40914A
:101C6000F3002091F20030E0342BFC01CF0161152C
:101C7000710559F02830310540F481918093F100CD
:101C8000615071092F5F3F4FF1CF41E0283031059E
:101C900009F040E02091E8002E772093E800C8CFBB
:101CA0004111C9CF0AC08091F001882361F08530CD
:101CB00061F08091E80083FD0AC08091E80082FF16
:101CC000F2CF80E0089582E0089583E0089581E0F6
:101CD00008952091F7013091F8012617370748F051
:101CE0006115710539F42091E8002E772093E80002
:101CF00001C0B901FC0120E06115710591F18091ED
:101D0000F001882309F440C0853009F43FC0809178
:101D1000E80083FD3DC08091E80082FD2FC08091E6
:101D2000E80080FFE9CF2091F3008091F20090E07D
:101D3000922B6115710559F08830910540F424917A
:101D40002093F1003196615071090196F2CF21E0A4
:101D5000089709F020E08091E8008E778093E800F2
:101D6000CBCF2111CCCF0AC08091F001882361F044
:101D7000853061F08091E80083FD0AC08091E80021
:101D800082FFF2CF80E0089582E0089583E0089515
:101D900081E00895982F973058F59093E9009817AF
:101DA00039F07091EC002091ED005091F00003C0EB
:101DB000242F762F50E021FF19C03091EB003E7F99
:101DC0003093EB003091ED003D7F3093ED0030918A
:101DD000EB0031603093EB007093EC002093ED004A
:101DE0005093F0002091EE0027FF07C09F5FD3CFF4
:101DF0008F708093E90081E0089580E008958091DC
:101E0000F10187FF11C08091E80082FD05C080913B
:101E1000F0018111F8CF11C08091E8008B770BC0E1
:101E20008091F001882349F08091E80080FFF8CF8D
:101E30008091E8008E778093E80008952091E40077
:101E40003091E50095E64091EC00842F817040FFD1
:101E500022C08091E80080FD1CC08091F0018823A1
:101E600091F0853091F08091EB0085FD10C040919C
:101E7000E4005091E5004217530729F39A0191506D
:101E800011F784E0089582E0089583E0089581E0E9
:101E9000089580E008954091E80042FFDECF089564
:101EA0000E94BE0F0E94C60FE0EEF0E080818160CC
:101EB0008083E8EDF0E080818F77808319BCA7ED07
:101EC000B0E08C918E7F8C9380818F7E8083109286
:101ED000EF0108950F931F93CF93DF930E94BE0FDE
:101EE0000E94C60FC8EDD0E088818F7788838881F3
:101EF0008068888388818F7D888319BC1092F00167
:101F00001092EC011092EE011092ED0100EE10E043
:101F1000F80180818B7F808388818160888342E0A3
:101F200060E080E00E94CA0EE1EEF0E080818E7FEA
:101F30008083E2EEF0E08081816080838081886030
:101F40008083F80180818E7F80838881806188838F
:101F5000DF91CF911F910F910895E8EDF0E080811E
:101F60008F7E8083E7EDF0E080818160808384E074
:101F700082BF81E08093EF010C946A0FE8EDF0E0FE
:101F800080818E7F80831092E20008951092DA00A3
:101F90001092E10008951F920F920FB60F92112434
:101FA0002F933F934F935F936F937F938F939F9361
:101FB000AF93BF93EF93FF938091E10082FF0BC03B
:101FC0008091E20082FF07C08091E1008B7F8093C7
:101FD000E1000E9432128091DA0080FF1FC08091E0
:101FE000D80080FF1BC08091DA008E7F8093DA00DA
:101FF0008091D90080FF0DC080E189BD82E189BD5B
:1020000009B400FEFDCF81E08093F0010E943A0CFC
:1020100005C019BC1092F0010E94480C8091E100AB
:1020200080FF19C08091E20080FF15C08091E2001E
:102030008E7F8093E2008091E20080618093E200D5
:102040008091D80080628093D80019BC85E080938D
:10205000F0010E944C0C8091E10084FF30C080911F
:10206000E20084FF2CC080E189BD82E189BD09B412
:1020700000FEFDCF8091D8008F7D8093D8008091A5
:10208000E1008F7E8093E1008091E2008F7E80935B
:10209000E2008091E20081608093E2008091EC0197
:1020A000882311F084E007C08091E30087FD02C01F
:1020B00081E001C083E08093F0010E944D0C80918B
:1020C000E10083FF29C08091E20083FF25C0809159
:1020D000E100877F8093E10082E08093F00110921D
:1020E000EC018091E1008E7F8093E1008091E2001D
:1020F0008E7F8093E2008091E20080618093E20015
:1021000042E060E080E00E94CA0E8091F0008860AA
:102110008093F0000E944B0CFF91EF91BF91AF9123
:102120009F918F917F916F915F914F913F912F91EF
:102130000F900FBE0F901F9018951F920F920FB621
:102140000F9211242F933F934F935F936F937F933D
:102150008F939F93AF93BF93CF93DF93EF93FF93AF
:10216000C091E900CF708091EC00D82FD17080FD34
:10217000D0E81092E9008091F000877F8093F00012
:1021800078940E94E1101092E9008091F00088603C
:102190008093F000CD2BCF70C093E900FF91EF91B9
:1021A000DF91CF91BF91AF919F918F917F916F916F
:1021B0005F914F913F912F910F900FBE0F901F9005
:1021C00018951F93CF93DF93CDB7DEB7AA970FB6BD
:1021D000F894DEBF0FBECDBFE1EFF1E088E08E0FD7
:1021E0009091F10091938E13FBCF0E94630C80912C
:1021F000E80083FF1FC18091F1019091F201492F06
:1022000050E04A30510508F015C1FA01EB59FF4F73
:102210000C942A25803881F0823809F00BC1809116
:10222000F5018F708093E9008091EB0085FB882792
:1022300080F91092E90006C08091ED019091EE01C5
:10224000911182609091E800977F9093E8008093CD
:10225000F1001092F100C8C0282F2D7F09F0EAC0CC
:10226000882319F0823061F0E5C08091F30181305C
:1022700009F0E0C0933009F080E08093EE012BC0BC
:102280008091F301811127C08091F5018F7009F4CD
:10229000D1C08093E9002091EB0020FF1CC0933057
:1022A00021F48091EB00806214C09091EB0090616A
:1022B0009093EB0021E030E0A90102C0440F551FCC
:1022C0008A95E2F74093EA001092EA008091EB00D1
:1022D00088608093EB001092E9008091E800877F8E
:1022E00086C08111A7C01091F3011F778091E30090
:1022F0008078812B8093E3008091E800877F809332
:10230000E8000E94FF0E8091E80080FFFCCF8091E2
:10231000E30080688093E300111102C082E001C0F5
:1023200083E08093F00186C08058823008F082C03C
:102330008091F3019091F4018C3D53E0950779F57C
:1023400083E08A838AE289834FB7F894DE0113968B
:1023500020E03EE051E2E32FF0E050935700E4919B
:1023600020FF03C0E295EF703F5FEF708E2F90E08B
:10237000EA3010F0C79601C0C0968D939D932F5FF1
:10238000243149F74FBF8091E800877F8093E800B0
:102390006AE270E0CE0101960E94060E14C0AE0102
:1023A0004F5F5F4F6091F5010E944D0DBC01892B7D
:1023B00009F440C09091E800977F9093E8008981EC
:1023C0009A810E94690E8091E8008B778093E800E3
:1023D00031C0803879F58091E800877F8093E800EC
:1023E0008091EC018093F1008091E8008E778093DA
:1023F000E8000E94FF0E1EC081111CC09091F301E5
:102400009230C0F48091E800877F8093E800909339
:10241000EC010E94FF0E8091EC01811106C08091B9
:10242000E30087FD02C081E001C084E08093F001F9
:102430000E944F0C8091E80083FF0AC08091E80061
:10244000877F8093E8008091EB0080628093EB00AF
:10245000AA960FB6F894DEBF0FBECDBFDF91CF9125
:102460001F9108950895CF938091F0018823A1F0E2
:10247000C091E900CF709091EC00892F817090FDA0
:1024800080E8C82B1092E9008091E80083FD0E944B
:10249000E110CF70C093E900CF91089590937C0133
:1024A00080937B010895E0917B01F0917C0130974E
:1024B00021F00190F081E02D099480E00895E091F1
:1024C0007B01F0917C01309721F00280F381E02DB7
:1024D00009940895E0917B01F0917C01309721F0FF
:1024E0000480F581E02D09940895209179013091BF
:1024F0007A018217930771F090937A0180937901A2
:10250000E0917B01F0917C01309721F00680F7810A
:10251000E02D099408952091770130917801821778
:10252000930771F09093780180937701E0917B019C
:10253000F0917C01309721F00084F185E02D099421
:10254000089508950C94A1120E94281E0E947B0AEF
:102550000E94AE1E0C9459235F926F927F928F92CD
:102560009F92AF92BF92CF92DF92EF92FF920F9322
:102570001F93CF93DF9300D000D01F92CDB7DEB76B
:102580000E94C00A96E8C92E91E0D92E03E010E01F
:10259000AA24A394B12C502E802F0E943B0B4C01F7
:1025A000F601729062906F016826792661147104B9
:1025B000A1F40150110978F78FEF89838A831B8278
:1025C0000E94311E8160782F9D838C8349815A81BE
:1025D0006B818D810E945C1338C08091DB0181FD8D
:1025E0000E94440B2BE030E07501022E02C0EE0C7D
:1025F000FF1C0A94E2F7C70186219721892B09F174
:1026000029835A828E209F2091E0892809F490E046
:102610009B830E94311E8160782F9D838C8349812A
:102620005A816B818D810E945C13000F111FF8018C
:10263000E258FE4F80819181E826F926F182E082FE
:1026400004C02150310980F6B4CF0E948C20109133
:102650007D010E9453121817D1F00E9453128093EB
:102660007D010F900F900F900F900F90DF91CF9101
:102670001F910F91FF90EF90DF90CF90BF90AF90A0
:102680009F908F907F906F905F900C94650A0F9051
:102690000F900F900F900F90DF91CF911F910F919E
:1026A000FF90EF90DF90CF90BF90AF909F908F9072
:1026B0007F906F905F900895CF93DF93CDB7DEB793
:1026C0002B970FB6F894DEBF0FBECDBF4F83588750
:1026D00069877A878B87DE01119686E0FD0111926A
:1026E0008A95E9F785E0FE01379601900D928A956B
:1026F000E1F749815A816B817C818D819E810E94A5
:10270000D3192B960FB6F894DEBF0FBECDBFDF9165
:10271000CF910895CF93882309F4C2C0C82F82387F
:1027200059F40E94531281FDBBC089E30E94AD1C85
:102730000E947A1D89E30CC0833879F40E945312F9
:1027400080FDAEC083E50E94AD1C0E947A1D83E52A
:102750000E94EF1CCF910C947A1D843859F40E948A
:10276000531282FD9DC087E40E94AD1C0E947A1D19
:1027700087E4EECF8CEF8C0F813A48F48C2F0E94C7
:10278000C12281118DC08C2F0E94AD1CE3CF80E24D
:102790008C0F883048F4C77081E001C0880FCA955B
:1027A000EAF70E94331DD6CF8BE58C0F833078F487
:1027B000C53A29F0C63A31F083E890E005C081E8D7
:1027C00090E002C082E890E0CF910C94751288E509
:1027D0008C0F833108F064C0C83A39F1C93A41F12D
:1027E000CA3A49F1CB3A51F1CC3A59F1CD3A61F1BB
:1027F000C03B69F1CE3A71F1CF3A79F1C13B81F139
:10280000C23B89F1C33B91F1C43B99F1C53BA1F1B6
:10281000C63BA9F1C73BB1F1C83BB9F1C93BC1F116
:10282000CA3BC9F180E090E038C082EE90E035C04C
:1028300089EE90E032C08AEE90E02FC085EB90E008
:102840002CC086EB90E029C087EB90E026C08CEC92
:1028500090E023C08DEC90E020C083E891E01DC0A3
:102860008AE891E01AC082E991E017C084E991E01A
:1028700014C081E292E011C083E292E00EC084E2D3
:1028800092E00BC085E292E008C086E292E005C0CB
:1028900087E292E002C08AE292E0CF910C948B1220
:1028A000CF910895882309F44BC0823859F40E94CF
:1028B000531281FF45C089E30E94AD1C0E947A1D1E
:1028C00089E30CC0833871F40E94531280FF38C032
:1028D00083E50E94AD1C0E947A1D83E50E94EF1CD7
:1028E0000C947A1D843859F40E94531282FF28C038
:1028F00087E40E94AD1C0E947A1D87E4EFCF9CEF15
:10290000980F913A58F390E2980F983050F48770EE
:1029100091E001C0990F8A95EAF7892F0E94391D2D
:10292000DFCF9BE5980F933020F480E090E00C948B
:102930007512885A833120F480E090E00C948B1259
:102940000895882321F00E94331D0C947A1D089568
:10295000882321F00E94391D0C947A1D08957F92DE
:102960008F929F92AF92BF92CF92DF92EF92FF929F
:102970000F931F93CF93DF931F92CDB7DEB77C01E8
:10298000C62E772EFC01058102950F701281111160
:102990000E94501D0E94A61C882379F0112369F023
:1029A00080E28C0D883048F082E00E948F1C0E94EB
:1029B000A61C91E0D82ED92601C0D12CE72DE29596
:1029C000EF70F0E0E159FF4F0C942A25872D807FAE
:1029D000072D0F70882311F00295007F112389F0D5
:1029E000002309F499C180E28C0D883020F4802FF7
:1029F0000E94331D03C0802F0E94431D0E947A1D38
:102A00008BC18C2D0E945214002309F4C3C180E2B3
:102A10008C0D883020F4802F0E94391D03C0802F38
:102A20000E94491D0E947A1DB5C1872D807F972D78
:102A30009F70803211F4892F03C0892F8295807F87
:102A4000CC2021F0F1E0CF16A1F01DC0112339F008
:102A5000002319F1013009F50E94631D9BC1002379
:102A600019F0013009F496C189830E94661D89819D
:102A700010C1112321F0063008F08CC10EC00530C2
:102A800008F088C106C1112359F0002331F0F70185
:102A9000958190FF41C19F7095830E94A1147AC1D6
:102AA000002309F4F6C03EC1872D86958695837074
:102AB00090E0009719F0019761F06CC1112321F0AB
:102AC0008C2D972D937002C080E090E00E947512CB
:102AD00061C1112321F08C2D972D937002C080E0ED
:102AE00090E00E948B1256C18C2D112319F00E9488
:102AF000941F02C00E94FC1F0E9481204BC1872DA1
:102B0000837009F052C0111145C18C2D82958695B4
:102B10008770880F880F9C2D9F70892E912CA12C77
:102B2000B12C082E04C0880C991CAA1CBB1C0A944A
:102B3000D2F7C4FE14C00FE010E020E030E0B9018D
:102B4000A80104C0440F551F661F771F8A95D2F74E
:102B5000CB01BA01609570958095909503C060E0B7
:102B600070E0CB01272D26952695237030E022308A
:102B7000310569F02330310589F0682979298A29DE
:102B80009B292130310571F00E941B1B03C168296C
:102B900079298A299B290E94371BFCC00E941B1B94
:102BA000C501B4010E94FF1AF5C0112319F0872D49
:102BB000817001C08695882309F4ECC08C2D829524
:102BC00086958770880F880F9C2D9F70892E912C79
:102BD000A12CB12C082E04C0880C991CAA1CBB1C6B
:102BE0000A94D2F7C4FE14C00FE010E020E030E0F9
:102BF000B901A80104C0440F551F661F771F8A95AD
:102C0000D2F7CB01BA01609570958095909503C07D
:102C100060E070E0CB01272D269526952370422F8A
:102C200050E04230510569F04330510589F0682980
:102C300079298A299B294130510571F00E94F51BA1
:102C4000A9C0682979298A299B290E94111CA2C040
:102C50000E94F51BC501B4010E94D91B9BC08C2D9D
:102C600090E0FC01E05EF109E531F10508F050C0AB
:102C7000E158FF4F0C942A250C2D0F70872D8F7172
:102C8000112321F00E94721B802F07CF0E94931BFB
:102C9000802F0E94A8147EC0112341F0053008F057
:102CA00079C0872D8F710E94B81B74C0063008F060
:102CB00071C0F7CF112339F0872D8F710E94721BDD
:102CC00069C01123C9F3872D8F710E94931B62C0C5
:102CD000112329F0872D8F710E945D1B5BC00E941C
:102CE000531B58C0112351F0172D1F71812F0E94C3
:102CF000721B63E0812F0E94861C4CC081E00E9401
:102D00008F1C023008F446C082E00E948F1C42C033
:102D1000112331F0002381F28C2D0E948A133AC0D6
:102D2000002389F28C2D0E94521434C0472D4F701D
:102D30006C2DC7010E94EE050E94771A2BC011115D
:102D400029C0472D4F7050E042305105B9F04CF486
:102D50004115510581F041305105E1F40E94812374
:102D600019C04330510569F04430510599F48C2D58
:102D70000E94D3230FC00E946A230CC00E949D238F
:102D800009C00E94B02306C0472D4F706C2DC701AB
:102D90000E940B07DD20F9F00E94821C80FD1BC001
:102DA000F70112820E947C1C0E94721BC7010E94C4
:102DB000FA160E947C1C0F90DF91CF911F910F910A
:102DC000FF90EF90DF90CF90BF90AF909F908F904B
:102DD0007F900C94931B0F90DF91CF911F910F91D7
:102DE000FF90EF90DF90CF90BF90AF909F908F902B
:102DF0007F9008950F931F93CF93DF93EC01888109
:102E000099812B813C81232BB9F09F3F11F48F3F97
:102E100099F0CE010E945F06882371F06881798164
:102E20008A810E94781C8C010E942D1C0E94F41A39
:102E3000B801CE010E94AF14DF91CF911F910F9185
:102E400008950E94501D0E94601D0E94251D0E9431
:102E50007A1D0E9432210E94812080E090E00E9431
:102E6000751280E090E00C948B120E94401D0C942F
:102E700021170E946D1C292F22952F7030E02C30D5
:102E800031054CF42A3031056CF4225031092230DE
:102E90003105A8F407C02C30310569F02F30310519
:102EA00051F00DC0803F69F018F4803E40F409C035
:102EB000843F29F406C093FB882780F9089580E0B9
:102EC000089581E00895CF93DF9300D000D01F9242
:102ED000CDB7DEB70F900F900F900F900F90DF914E
:102EE000CF910895CF93DF9300D000D000D0CDB71D
:102EF000DEB726960FB6F894DEBF0FBECDBFDF91CA
:102F0000CF9108951F93CF93DF93C091860116E070
:102F100080918701C81799F0D0E01C9FF0011D9F98
:102F2000F00D1124E857FE4F408151816281738179
:102F3000848195810E9472172196C770E9CFDF9135
:102F4000CF911F9108954091B8015091B9016091BE
:102F5000BA017091BB018091BC019091BD010C94AC
:102F600072178091BD0182958F7009F054C08091D5
:102F7000BA01882309F44FC080918601A09187018E
:102F80006091B8017091B9014091BB015091BC01B1
:102F9000B6E08A1709F43FC090E041155105C1F130
:102FA0007F3F11F46F3FA1F1B89FF001B99FF00D81
:102FB0001124E857FE4F218172132AC02081621329
:102FC00027C02281211124C0238134812417350791
:102FD00010F421503109241B350B283C3105C0F475
:102FE0002091BD012F7020612093BD0126E0289F14
:102FF000F001299FF00D1124E357FE4F80818F705F
:103000008061808388EB91E00E94FA160C9482170D
:1030100001968770BECF0895CF92DF92EF92FF9214
:103020000F931F93CF93DF93CDB7DEB762970FB6A1
:10303000F894DEBF0FBECDBF8C0185E0F801DE0144
:103040001D9601900D928A95E1F7D8014C91119649
:103050005C91119712966C9112971396CD90DC901B
:1030600014973091B8017091B9018091BB01909192
:10307000BC01009709F46BC17F3F19F43F3F09F48D
:1030800066C1E090BA01EE2009F4C0C02091BD01F4
:10309000C816D90628F0F601E81BF90BCF0104C0C9
:1030A000809590958C0D9D1DFF24F394883C91058F
:1030B00078F0F12C207F09F0C6C07C2DD98AC88A0F
:1030C00089890E94631788EB91E00E94FA16B1C0CB
:1030D000822F807F09F046C0751314C0341312C0CC
:1030E000611110C02F7020612093BD010E94A317B1
:1030F00088EB91E00E94FA168091BD01D8011596E7
:103100008C932EC0CD2819F15F3F11F44F3FF9F099
:10311000F62E61111CC0809186012091870136E056
:10312000821709F45AC090E0389FF001399FF00DE2
:103130001124E857FE4F7181571306C07081471361
:1031400003C07281711103C001968770E9CFF62E1A
:10315000662309F418C18091BD0181608093BD018F
:10316000F12C11C1751308C0341306C0611104C0DD
:103170008091BD01D801C3C04D875E878D859E8536
:103180006A8B0E9439176A898823E1F16623D1F19D
:103190002091BD01822F82958F7090E0029774F08C
:1031A0008091B8019091B90198878F831986DB8649
:1031B000CA862C87CE0107960E94FA1686E0F8018F
:1031C000A8EBB1E001900D928A95E1F70E94B1174A
:1031D0000E94A317FF24F394D6C04D875E878D8588
:1031E0009E850E946D1C292F22952F7030E0223081
:1031F00031050CF0BCC09F7009F0B6C0805E88300D
:1032000008F4C1C0C8010E94FA16E4CFC816D90656
:1032100008F453C0F601E81BF90BCF01883C910577
:1032200008F450C0F12C7C2DD98AC88A89890E9463
:103230006317E8EBF1E086E0DF011D928A95E9F77C
:103240000E94A317A0C0751314C0341312C06111DB
:1032500010C08091BD01F8018583C8010E94FA1653
:1032600086E0E8EBF1E0DF011D928A95E9F7FE2C9C
:103270008AC04D875E878D859E856A8B0E9439172F
:103280006A89882309F4BECF662309F4BBCF209155
:10329000BD01822F82958F7090E002970CF48ECF43
:1032A0008091B8019091B9019A8389831B82DD8254
:1032B000CC822E83CE0101967FCF809590958C0D88
:1032C0009D1DACCFF62E662309F49CCF75132EC03E
:1032D00034132CC02091BD0120FD1FC0822F829588
:1032E0008F70D9F0D80115962C9315978F3049F02F
:1032F0008F5F982F9295907F822F8F70892B1596D4
:103300008C93C8010E94FA1686E0F801A8EBB1E0A0
:1033100001900D928A95E1F793CF86E0F801A8EB32
:10332000B1E001900D928A95E1F72DC04D875E873F
:103330008D859E850E943917811140CF8091BD01F6
:1033400081608093BD01C8010E94FA161CC06623EB
:1033500009F458CF4D875E878D859E850E94391769
:10336000882309F44FCF2ACF811148CF0CC02430D5
:1033700031050CF047CF9F7009F440CFF8019581DB
:10338000907F09F03BCF8F2D62960FB6F894DEBF89
:103390000FBECDBFDF91CF911F910F91FF90EF90A6
:1033A000DF90CF9008951F93CF93DF93CDB7DEB713
:1033B0002C970FB6F894DEBF0FBECDBF4F83588752
:1033C00069877A878B879C87CE0107960E940C18A5
:1033D000882369F08F8198852A853B85232BF1F11D
:1033E0009F3F09F063C08F3F09F060C037C086E09F
:1033F000FE013796DE01119601900D928A95E1F754
:103400006F817885EA85FB85309741F17F3F11F424
:103410006F3F21F12091870130E0C901019687704B
:1034200099274091860150E08417950709F447C019
:1034300069837A83FD83EC8396E0929FD001939F0A
:10344000B00D1124A857BE4FFE01319601900D9288
:103450009A95E1F7809387010E94821716E0809188
:103460008601909187018917C1F1189FC00111242D
:1034700088579E4F0E940C18882379F1E0918601AD
:103480001E9FF0011124E857FE4F40815181628157
:103490007381848195810E9472178091860190E0EA
:1034A00001968770992780938601D9CF4F815885DF
:1034B00069857A858B859C850E947217CFCF0E9483
:1034C00035171092870110928601E8EBF1E086E053
:1034D000DF011D928A95E9F7C1CF2C960FB6F894BB
:1034E000DEBF0FBECDBFDF91CF911F910895EF9248
:1034F000FF920F931F93CF93DF938C01892B09F4D5
:103500006CC0F12CEE24E394E8012196F80184913B
:10351000843740F4843008F051C0813081F082302B
:1035200019F15BC0853709F444C0A8F19CE7980FF6
:10353000903708F052C08F770E94521441C00E5F3E
:103540001F4FFE01C49180E28C0F883048F4C77091
:103550008E2D01C0880FCA95EAF70E94531D14C032
:103560008C2F0E948A132DC00E5F1F4FFE01C49145
:1035700080E28C0F883058F4C7708E2D01C0880F00
:10358000CA95EAF70E94591D0E947A1D1AC08C2F15
:103590000E94521416C00E5F1F4FFE01C491CC232F
:1035A00081F08FE99FE00197F1F700C00000C15062
:1035B000F6CF0E5F1F4FFE01F49003C00E948A13E6
:1035C0008E018F2D882309F49FCFEFE9FFE031971B
:1035D000F1F700C000008150F5CFDF91CF911F912E
:1035E0000F91FF90EF90089508956093C20170933A
:1035F000C3018093C4019093C5010C9421170F93CC
:103600001F930091C2011091C3012091C401309118
:10361000C501DC01CB01802B912BA22BB32B809316
:10362000C2019093C301A093C401B093C5011F913F
:103630000F910C9421170F931F930091C2011091C9
:10364000C3012091C4013091C501DC01CB0180236D
:103650009123A223B3238093C2019093C301A0932B
:10366000C401B093C5011F910F910C9421170F93C2
:103670001F930091C2011091C3012091C4013091A8
:10368000C501DC01CB0180279127A227B3278093B6
:10369000C2019093C301A093C401B093C5011F91CF
:1036A0000F910C9421171092BE011092BF0110923D
:1036B000C0011092C1010C94211741E050E060E07C
:1036C00070E004C0440F551F661F771F8A95D2F71C
:1036D0004093BE015093BF016093C0017093C1013C
:1036E0000C94211741E050E060E070E004C0440F0A
:1036F000551F661F771F8A95D2F78091BE01909162
:10370000BF01A091C001B091C101482B592B6A2B78
:103710007B2B4093BE015093BF016093C001709317
:10372000C1010C94211741E050E060E070E004C05A
:10373000440F551F661F771F8A95D2F74095509505
:10374000609570958091BE019091BF01A091C001DC
:10375000B091C101482359236A237B234093BE01C2
:103760005093BF016093C0017093C1010C94211765
:1037700041E050E060E070E004C0440F551F661F58
:10378000771F8A95D2F78091BE019091BF01A091D9
:10379000C001B091C101482759276A277B27409370
:1037A000BE015093BF016093C0017093C1010C949E
:1037B00021170F931F930091BE011091BF0120911B
:1037C000C0013091C101DC01CB01802B912BA22BD8
:1037D000B32B8093BE019093BF01A093C001B0931F
:1037E000C1011F910F910C9421170F931F9300910A
:1037F000BE011091BF012091C0013091C101DC01D7
:10380000CB0180239123A223B3238093BE01909305
:10381000BF01A093C001B093C1011F910F910C94FF
:1038200021170F931F930091BE011091BF012091AA
:10383000C0013091C101DC01CB0180279127A22773
:10384000B3278093BE019093BF01A093C001B093B2
:10385000C1011F910F910C9421170895CF92DF920F
:10386000EF92FF920F931F93CF93DF938C01C09041
:10387000C201D090C301E090C401F090C5018091D5
:10388000BE019091BF01A091C001B091C101C82AB1
:10389000D92AEA2AFB2ACFE1D0E0D701C6010C2EB3
:1038A00004C0B695A795979587950A94D2F780FF9F
:1038B00006C0B8018C2F0E948B09019721F4219733
:1038C00060F780E001C08C2FDF91CF911F910F91A5
:1038D000FF90EF90DF90CF900895CF93DF93EC01AE
:1038E0000E942E1CBE010E948B09DF91CF9108958A
:1038F000CB010E946D1C08958091C6018595859528
:10390000859508958091C6018770089598E0899FF4
:1039100090011124262B2093C6010C94721B209138
:10392000C601809582238093C601982F977069F411
:1039300030E0482F552747FD50952417350729F0CB
:103940008595859585950C94931B08959091C60156
:10395000977081E009F480E0089590910B0199231C
:1039600021F090910C01911109C020910D0130912D
:103970000E01F90132969FEF40E01FC0982F9695F7
:10398000969596959F3050F5E0910D01F0910E01BE
:10399000E90FF11D877021E030E0A90102C0440F5A
:1039A000551F8A95E2F7CA019181892B8183089579
:1039B0009F3F39F04F5F4E3041F051915813F8CF8F
:1039C0000DC05111F7CF942FF5CF9F3F39F0F9017A
:1039D000E90FF11D97FDFA9582830895089590915E
:1039E0000B01992321F090910C01911109C02091B4
:1039F0000D0130910E01F9013296205F3F4F1FC03B
:103A0000982F9695969596959F30F0F4E0910D013C
:103A1000F0910E01E90FF11D877021E030E0A9015E
:103A200002C0440F551F8A95E2F7CA018095918123
:103A30008923818308953196E217F30729F0908155
:103A40009813F9CF1082F7CF089581E090E0E091CC
:103A50000D01F0910E01E80FF91F108201968031DF
:103A60009105A9F708959091DA01892B8093DA01E5
:103A7000089580959091DA0189238093DA01089561
:103A80001092DA0108959091D901892B8093D90180
:103A9000089580959091D90189238093D901089543
:103AA0001092D90108959091D801892B8093D80163
:103AB000089580959091D80189238093D801089525
:103AC0001092D80108958093C70108951092C701FC
:103AD000089580910D0190910E01FC0131969C0199
:103AE000205F3F4F80E0919191118F5FE217F307C4
:103AF000D1F70895E0910D01F0910E018091DA0166
:103B00008083E0910D01F0910E0190818091D901A7
:103B1000892B8083E0910D01F0910E0190818091BD
:103B2000D801892B80838091C701882361F0E091BF
:103B30000D01F0910E019081892B80830E94691DF7
:103B400081111092C70180910D0190910E010C948A
:103B50005F1220E0009739F0AC01415051098423F5
:103B600095232F5FF7CF822F08958091F001843045
:103B700039F11092DC0120E488E190E00FB6F8946E
:103B8000A895809360000FBE2093600080E00E94A3
:103B9000490580E00E94650A83B7817F846083BF06
:103BA00083B7816083BF7894889583B78E7F83BF06
:103BB00088E10FB6F89480936000109260000FBE09
:103BC00008950895089580E00E9449050E94E11D2E
:103BD0000E94C00A0E94E21D0E94450B91E08111E3
:103BE00001C090E0892F08950E94351780E00E945F
:103BF00049050E9459230E9453120C94650A1F9292
:103C00000F920FB60F9211248F939F93AF93BF9390
:103C10008091DC01811113C08091DD019091DE0162
:103C2000A091DF01B091E0014196A11DB11D8093EB
:103C3000DD019093DE01A093DF01B093E001BF911D
:103C4000AF919F918F910F900FBE0F901F9018957D
:103C500082E084BD93E095BD9AEF97BD80936E009E
:103C600008952FB7F8948091DD019091DE01A09125
:103C7000DF01B091E0012FBF0895CF92DF92EF9264
:103C8000FF920F931F932FB7F8944091DD0150914D
:103C9000DE016091DF017091E0012FBF6A017B01BD
:103CA000EE24FF248C0120E030E0C016D106E206AD
:103CB000F30610F4415051099A01281B390BC90130
:103CC0001F910F91FF90EF90DF90CF9008951F927A
:103CD0000F920FB60F9211248F939F93AF93BF93C0
:103CE0008091DD019091DE01A091DF01B091E001B2
:103CF0000196A11DB11D8093DD019093DE01A0937B
:103D0000DF01B093E001BF91AF919F918F910F9030
:103D10000FBE0F901F9018950E94500FF8942FEF30
:103D200087EA91E6215080409040E1F700C0000012
:103D300087E090EBDC018093FB019093FC01A09362
:103D4000FD01B093FE019CE088E10FB6F894A895C0
:103D5000809360000FBE90936000FFCF0E94E81E2A
:103D6000811102C00E94C91E0E94F31E8093DB01D4
:103D70000E94001F8093F90187FB882780F98093B8
:103D80000C010E94F71E682F70E080E090E00C9418
:103D9000F51A6DEE7EEF80E090E00E94642560E011
:103DA00082E090E00E94522560E083E090E00E9473
:103DB000522560E084E090E00E94522560E085E0BA
:103DC00090E00E94522560E086E090E00C9452253D
:103DD00080E090E00E944C2521E08D3E9E4F09F04E
:103DE00020E0822F089582E090E00C94442583E047
:103DF00090E00C944425682F83E090E00C945225C9
:103E000084E090E00C944425682F84E090E00C94CA
:103E1000522586E090E00C944425682F86E090E0DF
:103E20000C9452258091E30180FF0BC06091120138
:103E300085E0689FB0011124759567957595679524
:103E40002BC081FF09C06091120185E0689FB0011D
:103E500011247595679520C082FF07C060911201FB
:103E600085E0689FB001112417C09091E401992367
:103E7000D1F060911101961788F72091120185E029
:103E8000289F90011124929FA001939F500D11240F
:103E900070E0CA010E9416256038710540F4611572
:103EA000710539F002C065E070E0862F08958FE754
:103EB000089581E008958091E30180FF08C060913A
:103EC000100170E0759567957595679521C081FF24
:103ED00006C06091100170E07595679519C082FF6A
:103EE00004C06091100170E010C09091E40199232A
:103EF000C1F060910F019617A0F780911001899F82
:103F0000C001112470E00E9416256038710528F464
:103F10006115710521F0862F08958FE7089581E0DE
:103F2000089561E070E0F4CF803F21F40E94121FF9
:103F3000819504C0813F29F40E94121F8093E701FC
:103F40000895823F21F40E94121F819504C0833F8F
:103F500029F40E94121F8093E6010895893F19F405
:103F60000E945B1F05C08A3F31F40E945B1F819550
:103F70008093E80108958B3F21F40E945B1F819597
:103F800004C08C3F29F40E945B1F8093E9010895CF
:103F9000843F21F48091E501816017C0853F21F4C1
:103FA0008091E501826011C0863F21F48091E50196
:103FB00084600BC0873F21F48091E501886005C0D3
:103FC000883F31F48091E50180618093E501089597
:103FD0008D3F21F48091E30181600BC08E3F21F47D
:103FE0008091E301826005C08F3F29F48091E30155
:103FF00084608093E3010895803F39F48091E70164
:1040000087FF6CC01092E70169C0813F29F480915D
:10401000E7011816BCF362C09091E601823F29F4D3
:1040200097FF5CC01092E60159C0833F19F419163E
:10403000CCF354C0893F41F48091E80118160CF08C
:104040004DC01092E8014AC08A3F29F48091E801EE
:1040500087FF44C0F6CF8B3F39F48091E90187FF99
:104060003DC01092E9013AC08C3F29F48091E901EA
:104070001816BCF333C0843F21F48091E5018E7F94
:1040800017C0853F21F48091E5018D7F11C0863FE7
:1040900021F48091E5018B7F0BC0873F21F4809153
:1040A000E501877F05C0883F31F48091E5018F7E6F
:1040B0008093E50113C08D3F21F48091E3018E7F51
:1040C0000BC08E3F21F48091E3018D7F05C08F3FAF
:1040D00029F48091E3018B7F8093E3018091E601D5
:1040E00081110EC08091E70181110AC08091E80121
:1040F000811106C08091E901811102C01092E40192
:10410000089585EE91E00E946A120E94311E9093FC
:10411000E2018093E10108951F93CF93DF93809193
:10412000E1019091E2010E943D1EAC019091E401F9
:10413000992321F02091130130E006C02091140151
:104140008AE0289F900111244217530708F486C083
:104150008091E601C091E701D091E8011091E90159
:10416000811107C0C11176C0D11174C0111172C084
:1041700075C09F3F19F09F5F9093E401181624F4D7
:104180000E94121F8093E6018091E60187FF05C01F
:104190000E94121F81958093E6011C1624F40E9450
:1041A000121F8093E7018091E70187FF05C00E94FD
:1041B000121F81958093E7016091E601662339F132
:1041C000C091E701CC2319F1772767FD7095872F00
:1041D000972F0E94272423E333E343E35FE30E9406
:1041E0008B240E94F4236093E6016C2F772767FDF0
:1041F0007095872F972F0E94272423E333E343E30F
:104200005FE30E948B240E94F4236093E7011D1654
:1042100024F40E945B1F8093E8018091E80187FFEE
:1042200005C00E945B1F81958093E801111624F45C
:104230000E945B1F8093E9018091E90187FF05C01F
:104240000E945B1F81958093E901DF91CF911F91BF
:104250000C9481209F3F09F08ECF96CFDF91CF91B4
:104260001F910895E5EEF1E085E0DF011D928A954A
:10427000E9F71092E4011092E3010895833081F18F
:1042800028F4813059F08230D1F00895853009F456
:1042900049C0B8F1863009F456C0089580911401E0
:1042A000262F30E0280F311D2F3F310524F4680FF1
:1042B0006093140108958FEF809314010895809105
:1042C0001301262F30E0280F311D2F3F310524F434
:1042D000680F6093130108958FEF80931301089581
:1042E00080911201262F30E0280F311D2F3F31051C
:1042F00024F4680F6093120108958FEF80931201E8
:10430000089580911101262F30E0280F311D2F3F95
:10431000310524F4680F6093110108958FEF8093A5
:104320001101089580911001262F30E0280F311DD2
:104330002F3F310524F4680F6093100108958FEF2B
:1043400080931001089580910F01262F30E0280FEF
:10435000311D2F3F310524F4680F60930F0108953C
:104360008FEF80930F010895833011F128F481308D
:1043700049F0823091F00895853081F120F1863046
:10438000C1F1089580911401681720F4861B809371
:104390001401089510921401089580911301681773
:1043A00020F4861B80931301089510921301089541
:1043B00080911201681720F4861B809312010895E2
:1043C00010921201089580911101681720F4861B44
:1043D00080931101089510921101089580911001A8
:1043E000681720F4861B8093100108951092100125
:1043F000089580910F01681720F4861B80930F01A8
:10440000089510920F0108950F931F93873208F0BB
:1044100048C08E3108F092C0803109F47CC008F5A4
:10442000873009F466C068F4863009F0A2C0809134
:10443000DB01817F8E7F8093DB0181E08093EB0144
:1044400099C08B3009F48EC08E3009F092C08091F3
:10445000DB0182FB222720F991E0922790FB82F971
:1044600063C0863109F47EC060F4813109F081C0F7
:104470000E94351790910C0181E0892780930C01EF
:1044800071C0893109F46EC08B3109F072C080911E
:10449000DB0181FB222720F991E0922790FB81F933
:1044A00043C0883309F45EC050F4893209F45CC01B
:1044B000853309F459C0873209F456C05AC0833491
:1044C00009F452C028F48A3308F453C0895337C022
:1044D000883409F04EC00E9435170FEF13ED20E32A
:1044E000015010402040E1F700C000000E948C1EE7
:1044F00039C09091DB01892F8095817080FB90F904
:1045000029F0966098609093DB0134C0997F977F83
:104510009093DB0127C08091DB0183FB222720F9E8
:1045200091E0922790FB83F98093DB019923D1F0EE
:104530008091DB0181608093DB0114C08D5141E0EB
:1045400050E060E070E08A019B0104C0000F111F81
:10455000221F331F8A95D2F7C901B8010E94F51AAC
:104560000E94351781E006C061E070E080E090E0D5
:10457000F5CF80E01F910F91089580E0089580E0CD
:104580000895CF93C82F8091EB01813069F018F026
:104590008230C9F184C0E0910D01F0910E0180815B
:1045A000823209F07EC007C0E0910D01F0910E014A
:1045B0008081823261F48C2F0E94BD22811104C05F
:1045C0008C2F0E9404221DC081E090E01AC08C2F25
:1045D0000E94BF22811114C0C43179F048F4CB305D
:1045E00079F0C03109F061C082E08093EB0108C02E
:1045F000C93219F0C83321F058C01092EB0155C0F0
:1046000081E0817054C0C93291F120F5C43179F153
:10461000B0F4C73009F047C08EE18093140182E303
:10462000809313018AE08093120184E18093110149
:1046300088E08093100188E280930F0134C0CE514E
:10464000C63088F5EC2FF0E0E75CFE4F8081809368
:10465000EA0129C0CE34E9F020F4CB3421F56AE038
:1046600013C0C13579F0C235F1F461E00DC080911D
:10467000EA01882319F01092EA0115C081E08093C5
:10468000EB0115C061E006C08091EA010E943E2165
:104690000AC06AE08091EA010E94B42104C010922D
:1046A000EB0180E004C081E002C080E0AACFCF919E
:1046B00008950E94E81E811102C00E94C91E0E9436
:1046C000091F8093FA0180FF02C0869501C080E037
:1046D0000C9449058091FA01982F9695292F30E086
:1046E000233031054CF49F5F990F8170892B8160D5
:1046F0008093FA010E940D1F8091FA0186950C9417
:1047000049058091FA01982F969591F09158990F4B
:104710008170892B8093FA018E7F91E009F490E0FB
:104720008091FA0190FB80F98093FA010E940D1F9D
:104730008091FA0186950C9449058091FA01982F91
:10474000909590FB80F98093FA010E940D1F809153
:10475000FA0180FF02C0869501C080E00C944905F3
:104760009091FA01892F86958F5F8F7791708430B1
:1047700028F4880F892B8093FA0102C09093FA01E4
:104780008091FA018E7F91E009F490E08091FA0126
:1047900090FB80F98093FA010E940D1F8091FA012D
:1047A00086950C9449052091FA01922F96958927B8
:1047B000982F990F822F8170892B8093FA018E7F19
:1047C00091E009F490E08091FA0190FB80F98093E8
:1047D000FA010E940D1F8091FA0186950C944905FB
:1047E0008091FA018695089504D06894B1118DC026
:1047F000089570D088F09F5790F0B92F9927B7513E
:10480000A0F0D1F0660F771F881F991F1AF0BA9594
:10481000C9F712C0B13081F077D0B1E0089574C00B
:10482000672F782F8827B85F39F0B93FCCF386958A
:1048300077956795B395D9F73EF4909580957095E7
:1048400061957F4F8F4F9F4F0895E89409C097FB64
:104850003EF490958095709561957F4F8F4F9F4F57
:104860009923A9F0F92F96E9BB279395F69587959B
:1048700077956795B795F111F8CFFAF4BB0F11F45E
:1048800060FF1BC06F5F7F4F8F4F9F4F16C0882305
:1048900011F096E911C0772321F09EE8872F762F3B
:1048A00005C0662371F096E8862F70E060E02AF07C
:1048B0009A95660F771F881FDAF7880F9695879568
:1048C00097F9089557FD9058440F551F59F05F3FD1
:1048D00071F04795880F97FB991F61F09F3F79F022
:1048E00087950895121613061406551FF2CF4695A4
:1048F000F1DF08C0161617061806991FF1CF869526
:104900007105610508940895E894BB276627772709
:10491000CB0197F908950BD078C069D028F06ED0FC
:1049200018F0952309F05AC05FC01124EECFCADFFA
:10493000A0F3959FD1F3950F50E0551F629FF001B2
:10494000729FBB27F00DB11D639FAA27F00DB11D0B
:10495000AA1F649F6627B00DA11D661F829F222794
:10496000B00DA11D621F739FB00DA11D621F839F1B
:10497000A00D611D221F749F3327A00D611D231FF1
:10498000849F600D211D822F762F6A2F11249F573F
:1049900050408AF0E1F088234AF0EE0FFF1FBB1F62
:1049A000661F771F881F91505040A9F79E3F510501
:1049B00070F014C0AACF5F3FECF3983EDCF386950D
:1049C00077956795B795F795E7959F5FC1F7FE2BAC
:1049D000880F911D9695879597F9089597F99F6788
:1049E00080E870E060E008959FEF80EC0895002477
:1049F0000A941616170618060906089500240A9444
:104A000012161306140605060895092E0394000CC9
:104A100011F4882352F0BB0F40F4BF2B11F460FF58
:104A200004C06F5F7F4F8F4F9F4F089597FB072EF6
:104A300016F4009407D077FD09D00E94302507FCBA
:104A400005D03EF4909581959F4F0895709561959E
:104A50007F4F0895EE0FFF1F0590F491E02D09940C
:104A6000AA1BBB1B51E107C0AA1FBB1FA617B70794
:104A700010F0A61BB70B881F991F5A95A9F78095B0
:104A80009095BC01CD010895F999FECF92BD81BDED
:104A9000F89A992780B50895A8E1B0E042E050E087
:104AA0000C946C25262FF999FECF92BD81BDF89A02
:104AB000019700B4021639F01FBA20BD0FB6F89462
:104AC000FA9AF99A0FBE08950196272F0E9453254E
:104AD0000C945225DC01CB01FC01F999FECF06C0F4
:104AE000F2BDE1BDF89A319600B40D9241505040AC
:084AF000B8F70895F894FFCF18
:104AF800FF5B0BE90BC60B920B5E0B0101C801288B
:104B080008140A321E1F0F03764F5F6F7F496943EF
:104B18007909595363404D36399E0951091B09E2F9
:104B28000875088E08A708C00801020304050607CF
:044B38000809000068
:00000001FF
